{"contracts/DocumentVerifier.sol":{"DocumentVerifier":{"abi":[{"anonymous":false,"inputs":[{"indexed":false,"internalType":"string","name":"hash","type":"string"},{"indexed":false,"internalType":"address","name":"uploader","type":"address"}],"name":"DocumentAdded","type":"event"},{"inputs":[{"internalType":"string","name":"_hash","type":"string"}],"name":"addDocument","outputs":[],"stateMutability":"nonpayable","type":"function"},{"inputs":[{"internalType":"string","name":"_hash","type":"string"}],"name":"verifyDocument","outputs":[{"internalType":"bool","name":"","type":"bool"},{"internalType":"uint256","name":"","type":"uint256"},{"internalType":"address","name":"","type":"address"}],"stateMutability":"view","type":"function"}],"evm":{"bytecode":{"linkReferences":{},"object":"608060405234801561001057600080fd5b50610a0d806100206000396000f3fe608060405234801561001057600080fd5b50600436106100365760003560e01c8063beee5eb71461003b578063f740e0451461006d575b600080fd5b61005560048036038101906100509190610496565b610089565b60405161006493929190610554565b60405180910390f35b61008760048036038101906100829190610496565b6101e4565b005b60008060008060008560405161009f91906105fc565b90815260200160405180910390206040518060600160405290816000820180546100c890610642565b80601f01602080910402602001604051908101604052809291908181526020018280546100f490610642565b80156101415780601f1061011657610100808354040283529160200191610141565b820191906000526020600020905b81548152906001019060200180831161012457829003601f168201915b50505050508152602001600182015481526020016002820160009054906101000a900473ffffffffffffffffffffffffffffffffffffffff1673ffffffffffffffffffffffffffffffffffffffff1673ffffffffffffffffffffffffffffffffffffffff1681525050905060008160200151036101c9576000806000935093509350506101dd565b600181602001518260400151935093509350505b9193909250565b600080826040516101f591906105fc565b90815260200160405180910390206001015414610247576040517f08c379a000000000000000000000000000000000000000000000000000000000815260040161023e906106d0565b60405180910390fd5b60405180606001604052808281526020014281526020013373ffffffffffffffffffffffffffffffffffffffff1681525060008260405161028891906105fc565b908152602001604051809103902060008201518160000190816102ab919061089c565b506020820151816001015560408201518160020160006101000a81548173ffffffffffffffffffffffffffffffffffffffff021916908373ffffffffffffffffffffffffffffffffffffffff1602179055509050507f1f20cfdb3ef04f04d1b62bf65fa31948437bde1bd7d3cc9e674c64d57e0082a181336040516103319291906109a7565b60405180910390a150565b6000604051905090565b600080fd5b600080fd5b600080fd5b600080fd5b6000601f19601f8301169050919050565b7f4e487b7100000000000000000000000000000000000000000000000000000000600052604160045260246000fd5b6103a38261035a565b810181811067ffffffffffffffff821117156103c2576103c161036b565b5b80604052505050565b60006103d561033c565b90506103e1828261039a565b919050565b600067ffffffffffffffff8211156104015761040061036b565b5b61040a8261035a565b9050602081019050919050565b82818337600083830152505050565b6000610439610434846103e6565b6103cb565b90508281526020810184848401111561045557610454610355565b5b610460848285610417565b509392505050565b600082601f83011261047d5761047c610350565b5b813561048d848260208601610426565b91505092915050565b6000602082840312156104ac576104ab610346565b5b600082013567ffffffffffffffff8111156104ca576104c961034b565b5b6104d684828501610468565b91505092915050565b60008115159050919050565b6104f4816104df565b82525050565b6000819050919050565b61050d816104fa565b82525050565b600073ffffffffffffffffffffffffffffffffffffffff82169050919050565b600061053e82610513565b9050919050565b61054e81610533565b82525050565b600060608201905061056960008301866104eb565b6105766020830185610504565b6105836040830184610545565b949350505050565b600081519050919050565b600081905092915050565b60005b838110156105bf5780820151818401526020810190506105a4565b60008484015250505050565b60006105d68261058b565b6105e08185610596565b93506105f08185602086016105a1565b80840191505092915050565b600061060882846105cb565b915081905092915050565b7f4e487b7100000000000000000000000000000000000000000000000000000000600052602260045260246000fd5b6000600282049050600182168061065a57607f821691505b60208210810361066d5761066c610613565b5b50919050565b600082825260208201905092915050565b7f416c726561647920657869737473000000000000000000000000000000000000600082015250565b60006106ba600e83610673565b91506106c582610684565b602082019050919050565b600060208201905081810360008301526106e9816106ad565b9050919050565b60008190508160005260206000209050919050565b60006020601f8301049050919050565b600082821b905092915050565b6000600883026107527fffffffffffffffffffffffffffffffffffffffffffffffffffffffffffffffff82610715565b61075c8683610715565b95508019841693508086168417925050509392505050565b6000819050919050565b600061079961079461078f846104fa565b610774565b6104fa565b9050919050565b6000819050919050565b6107b38361077e565b6107c76107bf826107a0565b848454610722565b825550505050565b600090565b6107dc6107cf565b6107e78184846107aa565b505050565b5b8181101561080b576108006000826107d4565b6001810190506107ed565b5050565b601f82111561085057610821816106f0565b61082a84610705565b81016020851015610839578190505b61084d61084585610705565b8301826107ec565b50505b505050565b600082821c905092915050565b600061087360001984600802610855565b1980831691505092915050565b600061088c8383610862565b9150826002028217905092915050565b6108a58261058b565b67ffffffffffffffff8111156108be576108bd61036b565b5b6108c88254610642565b6108d382828561080f565b600060209050601f83116001811461090657600084156108f4578287015190505b6108fe8582610880565b865550610966565b601f198416610914866106f0565b60005b8281101561093c57848901518255600182019150602085019450602081019050610917565b868310156109595784890151610955601f891682610862565b8355505b6001600288020188555050505b505050505050565b60006109798261058b565b6109838185610673565b93506109938185602086016105a1565b61099c8161035a565b840191505092915050565b600060408201905081810360008301526109c1818561096e565b90506109d06020830184610545565b939250505056fea2646970667358221220858049463911a170e22032fff77df50c651f1fec053f06b820358d7be14acea964736f6c63430008140033","opcodes":"PUSH1 0x80 PUSH1 0x40 MSTORE CALLVALUE DUP1 ISZERO PUSH2 0x10 JUMPI PUSH1 0x0 DUP1 REVERT JUMPDEST POP PUSH2 0xA0D DUP1 PUSH2 0x20 PUSH1 0x0 CODECOPY PUSH1 0x0 RETURN INVALID PUSH1 0x80 PUSH1 0x40 MSTORE CALLVALUE DUP1 ISZERO PUSH2 0x10 JUMPI PUSH1 0x0 DUP1 REVERT JUMPDEST POP PUSH1 0x4 CALLDATASIZE LT PUSH2 0x36 JUMPI PUSH1 0x0 CALLDATALOAD PUSH1 0xE0 SHR DUP1 PUSH4 0xBEEE5EB7 EQ PUSH2 0x3B JUMPI DUP1 PUSH4 0xF740E045 EQ PUSH2 0x6D JUMPI JUMPDEST PUSH1 0x0 DUP1 REVERT JUMPDEST PUSH2 0x55 PUSH1 0x4 DUP1 CALLDATASIZE SUB DUP2 ADD SWAP1 PUSH2 0x50 SWAP2 SWAP1 PUSH2 0x496 JUMP JUMPDEST PUSH2 0x89 JUMP JUMPDEST PUSH1 0x40 MLOAD PUSH2 0x64 SWAP4 SWAP3 SWAP2 SWAP1 PUSH2 0x554 JUMP JUMPDEST PUSH1 0x40 MLOAD DUP1 SWAP2 SUB SWAP1 RETURN JUMPDEST PUSH2 0x87 PUSH1 0x4 DUP1 CALLDATASIZE SUB DUP2 ADD SWAP1 PUSH2 0x82 SWAP2 SWAP1 PUSH2 0x496 JUMP JUMPDEST PUSH2 0x1E4 JUMP JUMPDEST STOP JUMPDEST PUSH1 0x0 DUP1 PUSH1 0x0 DUP1 PUSH1 0x0 DUP6 PUSH1 0x40 MLOAD PUSH2 0x9F SWAP2 SWAP1 PUSH2 0x5FC JUMP JUMPDEST SWAP1 DUP2 MSTORE PUSH1 0x20 ADD PUSH1 0x40 MLOAD DUP1 SWAP2 SUB SWAP1 KECCAK256 PUSH1 0x40 MLOAD DUP1 PUSH1 0x60 ADD PUSH1 0x40 MSTORE SWAP1 DUP2 PUSH1 0x0 DUP3 ADD DUP1 SLOAD PUSH2 0xC8 SWAP1 PUSH2 0x642 JUMP JUMPDEST DUP1 PUSH1 0x1F ADD PUSH1 0x20 DUP1 SWAP2 DIV MUL PUSH1 0x20 ADD PUSH1 0x40 MLOAD SWAP1 DUP2 ADD PUSH1 0x40 MSTORE DUP1 SWAP3 SWAP2 SWAP1 DUP2 DUP2 MSTORE PUSH1 0x20 ADD DUP3 DUP1 SLOAD PUSH2 0xF4 SWAP1 PUSH2 0x642 JUMP JUMPDEST DUP1 ISZERO PUSH2 0x141 JUMPI DUP1 PUSH1 0x1F LT PUSH2 0x116 JUMPI PUSH2 0x100 DUP1 DUP4 SLOAD DIV MUL DUP4 MSTORE SWAP2 PUSH1 0x20 ADD SWAP2 PUSH2 0x141 JUMP JUMPDEST DUP3 ADD SWAP2 SWAP1 PUSH1 0x0 MSTORE PUSH1 0x20 PUSH1 0x0 KECCAK256 SWAP1 JUMPDEST DUP2 SLOAD DUP2 MSTORE SWAP1 PUSH1 0x1 ADD SWAP1 PUSH1 0x20 ADD DUP1 DUP4 GT PUSH2 0x124 JUMPI DUP3 SWAP1 SUB PUSH1 0x1F AND DUP3 ADD SWAP2 JUMPDEST POP POP POP POP POP DUP2 MSTORE PUSH1 0x20 ADD PUSH1 0x1 DUP3 ADD SLOAD DUP2 MSTORE PUSH1 0x20 ADD PUSH1 0x2 DUP3 ADD PUSH1 0x0 SWAP1 SLOAD SWAP1 PUSH2 0x100 EXP SWAP1 DIV PUSH20 0xFFFFFFFFFFFFFFFFFFFFFFFFFFFFFFFFFFFFFFFF AND PUSH20 0xFFFFFFFFFFFFFFFFFFFFFFFFFFFFFFFFFFFFFFFF AND PUSH20 0xFFFFFFFFFFFFFFFFFFFFFFFFFFFFFFFFFFFFFFFF AND DUP2 MSTORE POP POP SWAP1 POP PUSH1 0x0 DUP2 PUSH1 0x20 ADD MLOAD SUB PUSH2 0x1C9 JUMPI PUSH1 0x0 DUP1 PUSH1 0x0 SWAP4 POP SWAP4 POP SWAP4 POP POP PUSH2 0x1DD JUMP JUMPDEST PUSH1 0x1 DUP2 PUSH1 0x20 ADD MLOAD DUP3 PUSH1 0x40 ADD MLOAD SWAP4 POP SWAP4 POP SWAP4 POP POP JUMPDEST SWAP2 SWAP4 SWAP1 SWAP3 POP JUMP JUMPDEST PUSH1 0x0 DUP1 DUP3 PUSH1 0x40 MLOAD PUSH2 0x1F5 SWAP2 SWAP1 PUSH2 0x5FC JUMP JUMPDEST SWAP1 DUP2 MSTORE PUSH1 0x20 ADD PUSH1 0x40 MLOAD DUP1 SWAP2 SUB SWAP1 KECCAK256 PUSH1 0x1 ADD SLOAD EQ PUSH2 0x247 JUMPI PUSH1 0x40 MLOAD PUSH32 0x8C379A000000000000000000000000000000000000000000000000000000000 DUP2 MSTORE PUSH1 0x4 ADD PUSH2 0x23E SWAP1 PUSH2 0x6D0 JUMP JUMPDEST PUSH1 0x40 MLOAD DUP1 SWAP2 SUB SWAP1 REVERT JUMPDEST PUSH1 0x40 MLOAD DUP1 PUSH1 0x60 ADD PUSH1 0x40 MSTORE DUP1 DUP3 DUP2 MSTORE PUSH1 0x20 ADD TIMESTAMP DUP2 MSTORE PUSH1 0x20 ADD CALLER PUSH20 0xFFFFFFFFFFFFFFFFFFFFFFFFFFFFFFFFFFFFFFFF AND DUP2 MSTORE POP PUSH1 0x0 DUP3 PUSH1 0x40 MLOAD PUSH2 0x288 SWAP2 SWAP1 PUSH2 0x5FC JUMP JUMPDEST SWAP1 DUP2 MSTORE PUSH1 0x20 ADD PUSH1 0x40 MLOAD DUP1 SWAP2 SUB SWAP1 KECCAK256 PUSH1 0x0 DUP3 ADD MLOAD DUP2 PUSH1 0x0 ADD SWAP1 DUP2 PUSH2 0x2AB SWAP2 SWAP1 PUSH2 0x89C JUMP JUMPDEST POP PUSH1 0x20 DUP3 ADD MLOAD DUP2 PUSH1 0x1 ADD SSTORE PUSH1 0x40 DUP3 ADD MLOAD DUP2 PUSH1 0x2 ADD PUSH1 0x0 PUSH2 0x100 EXP DUP2 SLOAD DUP2 PUSH20 0xFFFFFFFFFFFFFFFFFFFFFFFFFFFFFFFFFFFFFFFF MUL NOT AND SWAP1 DUP4 PUSH20 0xFFFFFFFFFFFFFFFFFFFFFFFFFFFFFFFFFFFFFFFF AND MUL OR SWAP1 SSTORE POP SWAP1 POP POP PUSH32 0x1F20CFDB3EF04F04D1B62BF65FA31948437BDE1BD7D3CC9E674C64D57E0082A1 DUP2 CALLER PUSH1 0x40 MLOAD PUSH2 0x331 SWAP3 SWAP2 SWAP1 PUSH2 0x9A7 JUMP JUMPDEST PUSH1 0x40 MLOAD DUP1 SWAP2 SUB SWAP1 LOG1 POP JUMP JUMPDEST PUSH1 0x0 PUSH1 0x40 MLOAD SWAP1 POP SWAP1 JUMP JUMPDEST PUSH1 0x0 DUP1 REVERT JUMPDEST PUSH1 0x0 DUP1 REVERT JUMPDEST PUSH1 0x0 DUP1 REVERT JUMPDEST PUSH1 0x0 DUP1 REVERT JUMPDEST PUSH1 0x0 PUSH1 0x1F NOT PUSH1 0x1F DUP4 ADD AND SWAP1 POP SWAP2 SWAP1 POP JUMP JUMPDEST PUSH32 0x4E487B7100000000000000000000000000000000000000000000000000000000 PUSH1 0x0 MSTORE PUSH1 0x41 PUSH1 0x4 MSTORE PUSH1 0x24 PUSH1 0x0 REVERT JUMPDEST PUSH2 0x3A3 DUP3 PUSH2 0x35A JUMP JUMPDEST DUP2 ADD DUP2 DUP2 LT PUSH8 0xFFFFFFFFFFFFFFFF DUP3 GT OR ISZERO PUSH2 0x3C2 JUMPI PUSH2 0x3C1 PUSH2 0x36B JUMP JUMPDEST JUMPDEST DUP1 PUSH1 0x40 MSTORE POP POP POP JUMP JUMPDEST PUSH1 0x0 PUSH2 0x3D5 PUSH2 0x33C JUMP JUMPDEST SWAP1 POP PUSH2 0x3E1 DUP3 DUP3 PUSH2 0x39A JUMP JUMPDEST SWAP2 SWAP1 POP JUMP JUMPDEST PUSH1 0x0 PUSH8 0xFFFFFFFFFFFFFFFF DUP3 GT ISZERO PUSH2 0x401 JUMPI PUSH2 0x400 PUSH2 0x36B JUMP JUMPDEST JUMPDEST PUSH2 0x40A DUP3 PUSH2 0x35A JUMP JUMPDEST SWAP1 POP PUSH1 0x20 DUP2 ADD SWAP1 POP SWAP2 SWAP1 POP JUMP JUMPDEST DUP3 DUP2 DUP4 CALLDATACOPY PUSH1 0x0 DUP4 DUP4 ADD MSTORE POP POP POP JUMP JUMPDEST PUSH1 0x0 PUSH2 0x439 PUSH2 0x434 DUP5 PUSH2 0x3E6 JUMP JUMPDEST PUSH2 0x3CB JUMP JUMPDEST SWAP1 POP DUP3 DUP2 MSTORE PUSH1 0x20 DUP2 ADD DUP5 DUP5 DUP5 ADD GT ISZERO PUSH2 0x455 JUMPI PUSH2 0x454 PUSH2 0x355 JUMP JUMPDEST JUMPDEST PUSH2 0x460 DUP5 DUP3 DUP6 PUSH2 0x417 JUMP JUMPDEST POP SWAP4 SWAP3 POP POP POP JUMP JUMPDEST PUSH1 0x0 DUP3 PUSH1 0x1F DUP4 ADD SLT PUSH2 0x47D JUMPI PUSH2 0x47C PUSH2 0x350 JUMP JUMPDEST JUMPDEST DUP2 CALLDATALOAD PUSH2 0x48D DUP5 DUP3 PUSH1 0x20 DUP7 ADD PUSH2 0x426 JUMP JUMPDEST SWAP2 POP POP SWAP3 SWAP2 POP POP JUMP JUMPDEST PUSH1 0x0 PUSH1 0x20 DUP3 DUP5 SUB SLT ISZERO PUSH2 0x4AC JUMPI PUSH2 0x4AB PUSH2 0x346 JUMP JUMPDEST JUMPDEST PUSH1 0x0 DUP3 ADD CALLDATALOAD PUSH8 0xFFFFFFFFFFFFFFFF DUP2 GT ISZERO PUSH2 0x4CA JUMPI PUSH2 0x4C9 PUSH2 0x34B JUMP JUMPDEST JUMPDEST PUSH2 0x4D6 DUP5 DUP3 DUP6 ADD PUSH2 0x468 JUMP JUMPDEST SWAP2 POP POP SWAP3 SWAP2 POP POP JUMP JUMPDEST PUSH1 0x0 DUP2 ISZERO ISZERO SWAP1 POP SWAP2 SWAP1 POP JUMP JUMPDEST PUSH2 0x4F4 DUP2 PUSH2 0x4DF JUMP JUMPDEST DUP3 MSTORE POP POP JUMP JUMPDEST PUSH1 0x0 DUP2 SWAP1 POP SWAP2 SWAP1 POP JUMP JUMPDEST PUSH2 0x50D DUP2 PUSH2 0x4FA JUMP JUMPDEST DUP3 MSTORE POP POP JUMP JUMPDEST PUSH1 0x0 PUSH20 0xFFFFFFFFFFFFFFFFFFFFFFFFFFFFFFFFFFFFFFFF DUP3 AND SWAP1 POP SWAP2 SWAP1 POP JUMP JUMPDEST PUSH1 0x0 PUSH2 0x53E DUP3 PUSH2 0x513 JUMP JUMPDEST SWAP1 POP SWAP2 SWAP1 POP JUMP JUMPDEST PUSH2 0x54E DUP2 PUSH2 0x533 JUMP JUMPDEST DUP3 MSTORE POP POP JUMP JUMPDEST PUSH1 0x0 PUSH1 0x60 DUP3 ADD SWAP1 POP PUSH2 0x569 PUSH1 0x0 DUP4 ADD DUP7 PUSH2 0x4EB JUMP JUMPDEST PUSH2 0x576 PUSH1 0x20 DUP4 ADD DUP6 PUSH2 0x504 JUMP JUMPDEST PUSH2 0x583 PUSH1 0x40 DUP4 ADD DUP5 PUSH2 0x545 JUMP JUMPDEST SWAP5 SWAP4 POP POP POP POP JUMP JUMPDEST PUSH1 0x0 DUP2 MLOAD SWAP1 POP SWAP2 SWAP1 POP JUMP JUMPDEST PUSH1 0x0 DUP2 SWAP1 POP SWAP3 SWAP2 POP POP JUMP JUMPDEST PUSH1 0x0 JUMPDEST DUP4 DUP2 LT ISZERO PUSH2 0x5BF JUMPI DUP1 DUP3 ADD MLOAD DUP2 DUP5 ADD MSTORE PUSH1 0x20 DUP2 ADD SWAP1 POP PUSH2 0x5A4 JUMP JUMPDEST PUSH1 0x0 DUP5 DUP5 ADD MSTORE POP POP POP POP JUMP JUMPDEST PUSH1 0x0 PUSH2 0x5D6 DUP3 PUSH2 0x58B JUMP JUMPDEST PUSH2 0x5E0 DUP2 DUP6 PUSH2 0x596 JUMP JUMPDEST SWAP4 POP PUSH2 0x5F0 DUP2 DUP6 PUSH1 0x20 DUP7 ADD PUSH2 0x5A1 JUMP JUMPDEST DUP1 DUP5 ADD SWAP2 POP POP SWAP3 SWAP2 POP POP JUMP JUMPDEST PUSH1 0x0 PUSH2 0x608 DUP3 DUP5 PUSH2 0x5CB JUMP JUMPDEST SWAP2 POP DUP2 SWAP1 POP SWAP3 SWAP2 POP POP JUMP JUMPDEST PUSH32 0x4E487B7100000000000000000000000000000000000000000000000000000000 PUSH1 0x0 MSTORE PUSH1 0x22 PUSH1 0x4 MSTORE PUSH1 0x24 PUSH1 0x0 REVERT JUMPDEST PUSH1 0x0 PUSH1 0x2 DUP3 DIV SWAP1 POP PUSH1 0x1 DUP3 AND DUP1 PUSH2 0x65A JUMPI PUSH1 0x7F DUP3 AND SWAP2 POP JUMPDEST PUSH1 0x20 DUP3 LT DUP2 SUB PUSH2 0x66D JUMPI PUSH2 0x66C PUSH2 0x613 JUMP JUMPDEST JUMPDEST POP SWAP2 SWAP1 POP JUMP JUMPDEST PUSH1 0x0 DUP3 DUP3 MSTORE PUSH1 0x20 DUP3 ADD SWAP1 POP SWAP3 SWAP2 POP POP JUMP JUMPDEST PUSH32 0x416C726561647920657869737473000000000000000000000000000000000000 PUSH1 0x0 DUP3 ADD MSTORE POP JUMP JUMPDEST PUSH1 0x0 PUSH2 0x6BA PUSH1 0xE DUP4 PUSH2 0x673 JUMP JUMPDEST SWAP2 POP PUSH2 0x6C5 DUP3 PUSH2 0x684 JUMP JUMPDEST PUSH1 0x20 DUP3 ADD SWAP1 POP SWAP2 SWAP1 POP JUMP JUMPDEST PUSH1 0x0 PUSH1 0x20 DUP3 ADD SWAP1 POP DUP2 DUP2 SUB PUSH1 0x0 DUP4 ADD MSTORE PUSH2 0x6E9 DUP2 PUSH2 0x6AD JUMP JUMPDEST SWAP1 POP SWAP2 SWAP1 POP JUMP JUMPDEST PUSH1 0x0 DUP2 SWAP1 POP DUP2 PUSH1 0x0 MSTORE PUSH1 0x20 PUSH1 0x0 KECCAK256 SWAP1 POP SWAP2 SWAP1 POP JUMP JUMPDEST PUSH1 0x0 PUSH1 0x20 PUSH1 0x1F DUP4 ADD DIV SWAP1 POP SWAP2 SWAP1 POP JUMP JUMPDEST PUSH1 0x0 DUP3 DUP3 SHL SWAP1 POP SWAP3 SWAP2 POP POP JUMP JUMPDEST PUSH1 0x0 PUSH1 0x8 DUP4 MUL PUSH2 0x752 PUSH32 0xFFFFFFFFFFFFFFFFFFFFFFFFFFFFFFFFFFFFFFFFFFFFFFFFFFFFFFFFFFFFFFFF DUP3 PUSH2 0x715 JUMP JUMPDEST PUSH2 0x75C DUP7 DUP4 PUSH2 0x715 JUMP JUMPDEST SWAP6 POP DUP1 NOT DUP5 AND SWAP4 POP DUP1 DUP7 AND DUP5 OR SWAP3 POP POP POP SWAP4 SWAP3 POP POP POP JUMP JUMPDEST PUSH1 0x0 DUP2 SWAP1 POP SWAP2 SWAP1 POP JUMP JUMPDEST PUSH1 0x0 PUSH2 0x799 PUSH2 0x794 PUSH2 0x78F DUP5 PUSH2 0x4FA JUMP JUMPDEST PUSH2 0x774 JUMP JUMPDEST PUSH2 0x4FA JUMP JUMPDEST SWAP1 POP SWAP2 SWAP1 POP JUMP JUMPDEST PUSH1 0x0 DUP2 SWAP1 POP SWAP2 SWAP1 POP JUMP JUMPDEST PUSH2 0x7B3 DUP4 PUSH2 0x77E JUMP JUMPDEST PUSH2 0x7C7 PUSH2 0x7BF DUP3 PUSH2 0x7A0 JUMP JUMPDEST DUP5 DUP5 SLOAD PUSH2 0x722 JUMP JUMPDEST DUP3 SSTORE POP POP POP POP JUMP JUMPDEST PUSH1 0x0 SWAP1 JUMP JUMPDEST PUSH2 0x7DC PUSH2 0x7CF JUMP JUMPDEST PUSH2 0x7E7 DUP2 DUP5 DUP5 PUSH2 0x7AA JUMP JUMPDEST POP POP POP JUMP JUMPDEST JUMPDEST DUP2 DUP2 LT ISZERO PUSH2 0x80B JUMPI PUSH2 0x800 PUSH1 0x0 DUP3 PUSH2 0x7D4 JUMP JUMPDEST PUSH1 0x1 DUP2 ADD SWAP1 POP PUSH2 0x7ED JUMP JUMPDEST POP POP JUMP JUMPDEST PUSH1 0x1F DUP3 GT ISZERO PUSH2 0x850 JUMPI PUSH2 0x821 DUP2 PUSH2 0x6F0 JUMP JUMPDEST PUSH2 0x82A DUP5 PUSH2 0x705 JUMP JUMPDEST DUP2 ADD PUSH1 0x20 DUP6 LT ISZERO PUSH2 0x839 JUMPI DUP2 SWAP1 POP JUMPDEST PUSH2 0x84D PUSH2 0x845 DUP6 PUSH2 0x705 JUMP JUMPDEST DUP4 ADD DUP3 PUSH2 0x7EC JUMP JUMPDEST POP POP JUMPDEST POP POP POP JUMP JUMPDEST PUSH1 0x0 DUP3 DUP3 SHR SWAP1 POP SWAP3 SWAP2 POP POP JUMP JUMPDEST PUSH1 0x0 PUSH2 0x873 PUSH1 0x0 NOT DUP5 PUSH1 0x8 MUL PUSH2 0x855 JUMP JUMPDEST NOT DUP1 DUP4 AND SWAP2 POP POP SWAP3 SWAP2 POP POP JUMP JUMPDEST PUSH1 0x0 PUSH2 0x88C DUP4 DUP4 PUSH2 0x862 JUMP JUMPDEST SWAP2 POP DUP3 PUSH1 0x2 MUL DUP3 OR SWAP1 POP SWAP3 SWAP2 POP POP JUMP JUMPDEST PUSH2 0x8A5 DUP3 PUSH2 0x58B JUMP JUMPDEST PUSH8 0xFFFFFFFFFFFFFFFF DUP2 GT ISZERO PUSH2 0x8BE JUMPI PUSH2 0x8BD PUSH2 0x36B JUMP JUMPDEST JUMPDEST PUSH2 0x8C8 DUP3 SLOAD PUSH2 0x642 JUMP JUMPDEST PUSH2 0x8D3 DUP3 DUP3 DUP6 PUSH2 0x80F JUMP JUMPDEST PUSH1 0x0 PUSH1 0x20 SWAP1 POP PUSH1 0x1F DUP4 GT PUSH1 0x1 DUP2 EQ PUSH2 0x906 JUMPI PUSH1 0x0 DUP5 ISZERO PUSH2 0x8F4 JUMPI DUP3 DUP8 ADD MLOAD SWAP1 POP JUMPDEST PUSH2 0x8FE DUP6 DUP3 PUSH2 0x880 JUMP JUMPDEST DUP7 SSTORE POP PUSH2 0x966 JUMP JUMPDEST PUSH1 0x1F NOT DUP5 AND PUSH2 0x914 DUP7 PUSH2 0x6F0 JUMP JUMPDEST PUSH1 0x0 JUMPDEST DUP3 DUP2 LT ISZERO PUSH2 0x93C JUMPI DUP5 DUP10 ADD MLOAD DUP3 SSTORE PUSH1 0x1 DUP3 ADD SWAP2 POP PUSH1 0x20 DUP6 ADD SWAP5 POP PUSH1 0x20 DUP2 ADD SWAP1 POP PUSH2 0x917 JUMP JUMPDEST DUP7 DUP4 LT ISZERO PUSH2 0x959 JUMPI DUP5 DUP10 ADD MLOAD PUSH2 0x955 PUSH1 0x1F DUP10 AND DUP3 PUSH2 0x862 JUMP JUMPDEST DUP4 SSTORE POP JUMPDEST PUSH1 0x1 PUSH1 0x2 DUP9 MUL ADD DUP9 SSTORE POP POP POP JUMPDEST POP POP POP POP POP POP JUMP JUMPDEST PUSH1 0x0 PUSH2 0x979 DUP3 PUSH2 0x58B JUMP JUMPDEST PUSH2 0x983 DUP2 DUP6 PUSH2 0x673 JUMP JUMPDEST SWAP4 POP PUSH2 0x993 DUP2 DUP6 PUSH1 0x20 DUP7 ADD PUSH2 0x5A1 JUMP JUMPDEST PUSH2 0x99C DUP2 PUSH2 0x35A JUMP JUMPDEST DUP5 ADD SWAP2 POP POP SWAP3 SWAP2 POP POP JUMP JUMPDEST PUSH1 0x0 PUSH1 0x40 DUP3 ADD SWAP1 POP DUP2 DUP2 SUB PUSH1 0x0 DUP4 ADD MSTORE PUSH2 0x9C1 DUP2 DUP6 PUSH2 0x96E JUMP JUMPDEST SWAP1 POP PUSH2 0x9D0 PUSH1 0x20 DUP4 ADD DUP5 PUSH2 0x545 JUMP JUMPDEST SWAP4 SWAP3 POP POP POP JUMP INVALID LOG2 PUSH5 0x6970667358 0x22 SLT KECCAK256 DUP6 DUP1 0x49 CHAINID CODECOPY GT LOG1 PUSH17 0xE22032FFF77DF50C651F1FEC053F06B820 CALLDATALOAD DUP14 PUSH28 0xE14ACEA964736F6C6343000814003300000000000000000000000000 "},"methodIdentifiers":{"addDocument(string)":"f740e045","verifyDocument(string)":"beee5eb7"}}}}}