{
  "_format": "hh-sol-artifact-1",
  "contractName": "DocumentVerifier",
  "sourceName": "contracts/DocumentVerifier.sol",
  "abi": [
    {
      "anonymous": false,
      "inputs": [
        {
          "indexed": false,
          "internalType": "string",
          "name": "hash",
          "type": "string"
        },
        {
          "indexed": false,
          "internalType": "address",
          "name": "uploader",
          "type": "address"
        }
      ],
      "name": "DocumentAdded",
      "type": "event"
    },
    {
      "inputs": [
        {
          "internalType": "string",
          "name": "_hash",
          "type": "string"
        }
      ],
      "name": "addDocument",
      "outputs": [],
      "stateMutability": "nonpayable",
      "type": "function"
    },
    {
      "inputs": [
        {
          "internalType": "string",
          "name": "_hash",
          "type": "string"
        }
      ],
      "name": "verifyDocument",
      "outputs": [
        {
          "internalType": "bool",
          "name": "",
          "type": "bool"
        },
        {
          "internalType": "uint256",
          "name": "",
          "type": "uint256"
        },
        {
          "internalType": "address",
          "name": "",
          "type": "address"
        }
      ],
      "stateMutability": "view",
      "type": "function"
    }
  ],
  "bytecode": "0x608060405234801561001057600080fd5b50610a0d806100206000396000f3fe608060405234801561001057600080fd5b50600436106100365760003560e01c8063beee5eb71461003b578063f740e0451461006d575b600080fd5b61005560048036038101906100509190610496565b610089565b60405161006493929190610554565b60405180910390f35b61008760048036038101906100829190610496565b6101e4565b005b60008060008060008560405161009f91906105fc565b90815260200160405180910390206040518060600160405290816000820180546100c890610642565b80601f01602080910402602001604051908101604052809291908181526020018280546100f490610642565b80156101415780601f1061011657610100808354040283529160200191610141565b820191906000526020600020905b81548152906001019060200180831161012457829003601f168201915b50505050508152602001600182015481526020016002820160009054906101000a900473ffffffffffffffffffffffffffffffffffffffff1673ffffffffffffffffffffffffffffffffffffffff1673ffffffffffffffffffffffffffffffffffffffff1681525050905060008160200151036101c9576000806000935093509350506101dd565b600181602001518260400151935093509350505b9193909250565b600080826040516101f591906105fc565b90815260200160405180910390206001015414610247576040517f08c379a000000000000000000000000000000000000000000000000000000000815260040161023e906106d0565b60405180910390fd5b60405180606001604052808281526020014281526020013373ffffffffffffffffffffffffffffffffffffffff1681525060008260405161028891906105fc565b908152602001604051809103902060008201518160000190816102ab919061089c565b506020820151816001015560408201518160020160006101000a81548173ffffffffffffffffffffffffffffffffffffffff021916908373ffffffffffffffffffffffffffffffffffffffff1602179055509050507f1f20cfdb3ef04f04d1b62bf65fa31948437bde1bd7d3cc9e674c64d57e0082a181336040516103319291906109a7565b60405180910390a150565b6000604051905090565b600080fd5b600080fd5b600080fd5b600080fd5b6000601f19601f8301169050919050565b7f4e487b7100000000000000000000000000000000000000000000000000000000600052604160045260246000fd5b6103a38261035a565b810181811067ffffffffffffffff821117156103c2576103c161036b565b5b80604052505050565b60006103d561033c565b90506103e1828261039a565b919050565b600067ffffffffffffffff8211156104015761040061036b565b5b61040a8261035a565b9050602081019050919050565b82818337600083830152505050565b6000610439610434846103e6565b6103cb565b90508281526020810184848401111561045557610454610355565b5b610460848285610417565b509392505050565b600082601f83011261047d5761047c610350565b5b813561048d848260208601610426565b91505092915050565b6000602082840312156104ac576104ab610346565b5b600082013567ffffffffffffffff8111156104ca576104c961034b565b5b6104d684828501610468565b91505092915050565b60008115159050919050565b6104f4816104df565b82525050565b6000819050919050565b61050d816104fa565b82525050565b600073ffffffffffffffffffffffffffffffffffffffff82169050919050565b600061053e82610513565b9050919050565b61054e81610533565b82525050565b600060608201905061056960008301866104eb565b6105766020830185610504565b6105836040830184610545565b949350505050565b600081519050919050565b600081905092915050565b60005b838110156105bf5780820151818401526020810190506105a4565b60008484015250505050565b60006105d68261058b565b6105e08185610596565b93506105f08185602086016105a1565b80840191505092915050565b600061060882846105cb565b915081905092915050565b7f4e487b7100000000000000000000000000000000000000000000000000000000600052602260045260246000fd5b6000600282049050600182168061065a57607f821691505b60208210810361066d5761066c610613565b5b50919050565b600082825260208201905092915050565b7f416c726561647920657869737473000000000000000000000000000000000000600082015250565b60006106ba600e83610673565b91506106c582610684565b602082019050919050565b600060208201905081810360008301526106e9816106ad565b9050919050565b60008190508160005260206000209050919050565b60006020601f8301049050919050565b600082821b905092915050565b6000600883026107527fffffffffffffffffffffffffffffffffffffffffffffffffffffffffffffffff82610715565b61075c8683610715565b95508019841693508086168417925050509392505050565b6000819050919050565b600061079961079461078f846104fa565b610774565b6104fa565b9050919050565b6000819050919050565b6107b38361077e565b6107c76107bf826107a0565b848454610722565b825550505050565b600090565b6107dc6107cf565b6107e78184846107aa565b505050565b5b8181101561080b576108006000826107d4565b6001810190506107ed565b5050565b601f82111561085057610821816106f0565b61082a84610705565b81016020851015610839578190505b61084d61084585610705565b8301826107ec565b50505b505050565b600082821c905092915050565b600061087360001984600802610855565b1980831691505092915050565b600061088c8383610862565b9150826002028217905092915050565b6108a58261058b565b67ffffffffffffffff8111156108be576108bd61036b565b5b6108c88254610642565b6108d382828561080f565b600060209050601f83116001811461090657600084156108f4578287015190505b6108fe8582610880565b865550610966565b601f198416610914866106f0565b60005b8281101561093c57848901518255600182019150602085019450602081019050610917565b868310156109595784890151610955601f891682610862565b8355505b6001600288020188555050505b505050505050565b60006109798261058b565b6109838185610673565b93506109938185602086016105a1565b61099c8161035a565b840191505092915050565b600060408201905081810360008301526109c1818561096e565b90506109d06020830184610545565b939250505056fea2646970667358221220858049463911a170e22032fff77df50c651f1fec053f06b820358d7be14acea964736f6c63430008140033",
  "linkReferences": {},
  "deployedLinkReferences": {}
}